:020000040800F2
:10000000984A00209D010008850B00086D0A000831
:10001000810B0008B3070008051700080000000066
:1000200000000000000000000000000005010008C2
:10003000630800080000000049010008B51300082B
:10004000B7010008B7010008B7010008B7010008B0
:10005000B7010008B7010008B7010008B7010008A0
:10006000B7010008B7010008B7010008B701000890
:10007000B7010008B7010008B7010008B701000880
:10008000B7010008B7010008B7010008B701000870
:10009000B7010008B7010008B7010008B701000860
:1000A000B7010008B7010008B7010008B701000850
:1000B000B7010008B7010008B7010008B701000840
:1000C000B7010008B7010008B7010008B701000830
:1000D000B7010008B7010008B7010008B701000820
:1000E000B7010008B7010008B7010008DFF810D019
:1000F00000F046FA00480047DD1A0008AFF3008020
:10010000984A0020224B19680868B0E8F00F80F385
:100110000988BFF36F8F4FF0000080F311884EF015
:100120000D0E70470000000006480068006880F36C
:10013000088862B661B6BFF34F8FBFF36F8F00DFE1
:1001400000BF00BF08ED00E0EFF30980BFF36F8F41
:100150000F4B1A6820E9F00F106008B54FF0BF0090
:1001600080F31188BFF34F8FBFF36F8F02F0D2FA85
:100170004FF0000080F31188BDE808401968086856
:10018000B0E8F00F80F30988BFF36F8F704700BFAE
:1001900030000020EFF305807047000006488047DC
:1001A00006480047FEE7FEE7FEE7FEE7FEE7FEE75C
:1001B000FEE7FEE7FEE7FEE7E9130008ED000008B2
:1001C0002DE9F05F0546002092469B46884606468C
:1001D000814640241BE0284641464746224600F01F
:1001E00058F953465A46C01A914110D31146184641
:1001F000224600F03FF92D1A67EB01084F462246D0
:100200000120002100F036F917EB00094E41201EB5
:10021000A4F10104DFDC484631462A464346BDE8E6
:10022000F09F40EA01039B0703D009E008C9121FB1
:1002300008C0042AFAD203E011F8013B00F8013BA0
:10024000521EF9D27047D2B201E000F8012B491ECC
:10025000FBD270470022F6E710B513460A46044663
:100260001946FFF7F0FF204610BDF0B480EA010206
:10027000D40F4200B2EB410F02D2024608461146AB
:100280004A0042D0C30DDDB2C1F3C752AD1A202DD2
:1002900035DAC1F3160141F4000204B15242C5F14E
:1002A000200602FA06F12A411044B3EBD05F23D0B6
:1002B000C4B1012DA0EBC35009DCF0BC4FF00042EB
:1002C00002EAC352DBB200F5000000F0FBB84000C8
:1002D00000F1807000EBC350A0F1807040EAD17053
:1002E000490009E0490841EAC071A0EBC35000F59C
:1002F0000000400800EBC350F0BC00F0DAB86142E7
:10030000012202EB4101001BF6E7F0BC704781F0CF
:100310000041AAE780F00040A7E780EA010210B59B
:1003200002F00043400022D04A001FD0010E01EB32
:100330001261C0F35600C2F3560240F4000042F4CA
:100340000002A0FB022000047F39140400D0401CEE
:1003500050EA124001D44000491EC2B20C0604EB20
:10036000D010401C4008802A02D003E0002010BDBD
:1003700020F00100002900DA0020184310BD30B43D
:1003800080EA010202F0004530F0004221F0004016
:1003900013D090B1C30DD40DC2F31601C0F31600F3
:1003A000E41A41F4000140F400027D34914201D38B
:1003B000641C00E04900002C02DA30BC00207047C9
:1003C0004FF400000023914201D3891A03434008EF
:1003D0004FEA4101F7D151B1914202D14FF00041B2
:1003E00005E002D24FF0010101E06FF0010103EBE3
:1003F000C450284430BC00F05CB89623002211465B
:1004000000F060B800F0004220F00040C10DC0F3E1
:10041000160040F400007F2901DA00207047962979
:1004200003DCC1F19601C84001E096398840002AFA
:10043000F4D04042704720F00040C10DC0F31600D8
:1004400040F400007F2901DA00207047962903DC80
:10045000C1F19601C8407047963988407047000046
:10046000002801DBC0F10040002901DBC1F100419F
:1004700081427047202A04DB203A00FA02F1002072
:1004800070479140C2F1200320FA03F319439040D2
:100490007047202A04DB203A21FA02F0002170473D
:1004A00021FA02F3D040C2F12002914008431946DC
:1004B00070470029A8BF7047401C490008BF20F0C2
:1004C0000100704710B4B0FA80FC00FA0CF050EA5A
:1004D000010404BF10BC704749B1CCF1200421FADB
:1004E00004F411FA0CF118BF012121430843A3EBD6
:1004F0000C01CB1D4FEA00614FEA102042BF0020E3
:1005000010BC704700EBC35010440029A4BF10BCBE
:100510007047401C490008BF20F0010010BC704724
:10052000F0B4002802DCF0BC00207047C0F3C751D3
:10053000C0F3160040F40000CA0701D14000491E74
:100540003F2202EB6105002211464FF4000626FA15
:1005500001F31344D418844201D8001B1A4640000A
:10056000491C1729F3DD5100814202D24FF0FF31BF
:1005700000E0002102EBC550F0BCFFF79ABF00007D
:10058000064C074D06E0E06840F0010394E80700E0
:1005900098471034AC42F6D3FFF7ACFD8036000824
:1005A000A036000821B1826842F00102826003E0B7
:1005B000826822F0010282607047014600208A684A
:1005C00002F004020AB1012000E000207047014659
:1005D000C86C80B270470246002013680B400BB114
:1005E000012000E000207047014600208A6802F0E8
:1005F00008020AB1012000E00020704730B5024631
:100600000020002350680F4C20400D790C6844EA0C
:1006100005242043506090680B4C2040D1E90254DF
:100620002C434D7944EA450420439060D06A20F47D
:1006300070000C7C641EE4B2234340EA0350D06295
:1006400030BD0000FFFEF0FFFDF7F1FFF0B50446FE
:100650000D4600200021092D11DDE068A5F10A06F4
:1006600006EB4607072606FA07F18843A5F10A06B6
:1006700006EB460603FA06F10843E0600CE0206949
:1006800005EB4507072606FA07F1884305EB450603
:1006900003FA06F108432061072A0FDA606B561E41
:1006A00006EB86071F2606FA07F18843561E06EB5F
:1006B000860605FA06F10843606322E00D2A0FDA88
:1006C000206BD61F06EB86071F2606FA07F1884324
:1006D000D61F06EB860605FA06F10843206310E0F4
:1006E000E06AA2F10D0606EB86071F2606FA07F15F
:1006F0008843A2F10D0606EB860605FA06F10843CB
:10070000E062F0BD816841F008018160704721B16D
:10071000826842F4A002826003E0826822F4A002B0
:1007200082607047816841F004018160704710B5B4
:10073000016082800024C4800481C360046144613C
:1007400010BD2DE9F04104460D46002720890228FE
:1007500016DB28462169FFF7DAFD06460021304600
:10076000FFF77EFE01D286F000466169E068FFF780
:10077000D4FD80463146FFF773FE00D2012700BF4B
:10078000E188206840F82150E088401CA18890FB57
:10079000F1F201FB1200E0802089A188884202DA90
:1007A0002089401C2081204600F0D5FC3846BDE859
:1007B000F08100BFFEE7000008B50121042000F031
:1007C00003FC0120ADF8000010208DF80300032089
:1007D0008DF802006946054800F063F801210348DE
:1007E00000F03DF900F030FE08BD000000080140B7
:1007F0007CB504460CB901207CBD002020606060FF
:10080000207201F0C9FE00F0EFFC00F0A9FF0546E0
:1008100025B101F0D3FE65722846EDE7684600F089
:100820006EFC054625B101F0C9FE65722846E3E776
:1008300001F0C4FE684600F067FF10B90220607244
:10084000DAE72146684600F071FB0020607200BFC5
:10085000D2E710B501F0A0FE00F0C6FC01F0AEFE3C
:1008600010BD70472DE9F04105460DB9BDE8F08196
:100870002F460C26AA2000F0A3FE552000F0A0FE73
:10088000002404E0385D00F09BFE601C84B2B4429A
:10089000F8DB0D2000F094FE0A2000F091FE00BF6E
:1008A000E4E72DE9F0410246002500260020002360
:1008B0000024002791F803C00CF00F0591F803C045
:1008C0000CF0100CBCF1000F03D091F802C04CEA00
:1008D000050591F800C0BCF1000F31D0146800206C
:1008E0002BE04FF0010C0CFA00F3B1F800C00CEA59
:1008F00003069E4220D183004FF00F0C0CFA03F741
:10090000BC4305FA03FC4CEA040491F803C0BCF1B3
:10091000280F06D14FF0010C0CFA00FCC2F814C0ED
:100920000AE091F803C0BCF1480F05D14FF0010C6B
:100930000CFA00FCC2F810C0401C0828D1D3146087
:10094000B1F800C0BCF1FF0F34DD546800202EE088
:1009500000F1080C4FF0010808FA0CF3B1F800C0E0
:100960000CEA03069E4221D183004FF00F0C0CFAD3
:1009700003F7BC4305FA03FC4CEA040491F803C0F6
:10098000BCF1280F05D100F1080C08FA0CF8C2F8E8
:10099000148091F803C0BCF1480F07D100F1080C96
:1009A0004FF0010808FA0CF8C2F81080401C082823
:1009B000CED35460BDE8F081F0B50A460023002490
:1009C0000021002500F00046B6F1004F02D11D4E77
:1009D000F16901E01B4E7168C0F3034583B200F476
:1009E0004016B6F5401F08D121F07061154E7668AB
:1009F00026F07066134F7E6012E000F48016B6F5A4
:100A0000801F06D1032606FA05F4A14341F0706168
:100A100006E0460D360103FA06F6B14341F0706177
:100A200022B1460D360103FA06F6314300F00046C6
:100A3000B6F1004F02D1034EF16101E0014E716049
:100A4000F0BD0000000001400246002093680B400A
:100A50000BB1012000E00020704741617047016147
:100A600070470AB1016100E04161704700BFFEE7D5
:100A700010B50523012206210A48FFF7E7FD0121F1
:100A80000848FFF744FE00BF02210648FFF7A3FD18
:100A90000028F9D00348FFF79AFDC0F5805080B2D6
:100AA00010BD00000024014000B587B001214FF4C3
:100AB000017000F089FA4020ADF8180000208DF890
:100AC0001B0006A91848FFF7ECFE4FF4004000F0A9
:100AD0005FFA002001908DF808008DF809004FF4AE
:100AE000602003900020049001208DF8140001A9DB
:100AF0000E48FFF783FD01210C48FFF753FD0B481B
:100B0000FFF700FE00BF0948FFF76EFD0028FAD18D
:100B10000648FFF707FE00BF0448FFF74EFD002818
:100B2000FAD107B000BD00000008014000240140D8
:100B300070B505464FF47A71284600F0F5FD08B906
:100B4000002070BD4FF0804000F0A6FC044609E094
:100B50004FF0804000F0A0FC001BB0F57A7F01D37D
:100B60000020EEE701210548FFF76EFFA842EFD015
:100B70004FF0804000F090FC001BE2E700080140CD
:100B800000BFFEE7704770B500240EE0002120464C
:100B900000F0F7F8002504E0002000F0B6F9681C2A
:100BA000C5B2802DF8DB601CC4B2082CEEDB70BD32
:100BB00008B50121084600F007FA01210220FFF7DD
:100BC000FBFE0121082000F0FFF914208DF803003E
:100BD00003208DF802004FF48070ADF800006946E4
:100BE0000A48FFF75EFE4FF40070ADF8000069465A
:100BF0000648FFF756FE012211020448FFF731FFB5
:100C0000012251020148FFF72CFF08BD000C0140F2
:100C100070B50546002415E08020204100EA050259
:100C20004FF400710E48FFF71CFF012211020C481F
:100C3000FFF717FF00224FF480710948FFF711FFFB
:100C4000601CC4B2082CE7DB012211020448FFF744
:100C500008FF00224FF480710148FFF702FF70BDCA
:100C6000000C014010B5012251020A48FFF7F9FEBD
:100C7000012211020748FFF7F4FE00224FF4007131
:100C80000448FFF7EEFE00224FF480710148FFF7A1
:100C9000E8FE10BD000C014010B500224FF40071B9
:100CA0000648FFF7DEFE012211020448FFF7D9FED5
:100CB000012251020148FFF7D4FE10BD000C014093
:100CC00070B5002406E0002500E06D1CB5F57A7FC4
:100CD000FBD3641CB4F57A7FF5D3FFF769FFAE2030
:100CE00000F003F9D52000F000F9802000F0FDF8B5
:100CF000A82000F0FAF83F2000F0F7F8D32000F029
:100D0000F4F8002000F0F1F8402000F0EEF8A12007
:100D100000F0EBF8C82000F0E8F8DA2000F0E5F881
:100D2000122000F0E2F8812000F0DFF8CF2000F080
:100D3000DCF8D92000F0D9F8F12000F0D6F8DB205B
:100D400000F0D3F8302000F0D0F8A42000F0CDF867
:100D5000A62000F0CAF88D2000F0C7F8142000F09B
:100D6000C4F8AF2000F0C1F8FFF70DFF70BD10B55B
:100D70000246012000E050430B1EA1F10101FAD10F
:100D800010BD70B505460C4645F0B00000F0ADF85A
:100D9000102141EA141000F0A8F804F00F0000F050
:100DA000A4F870BD2DE9F04105460E461746721EA7
:100DB000D206110E6A1E5206100EFFF7E2FF002443
:100DC00009E0A7F12001134A02EB0111085D00F0D0
:100DD0009CF8601CC4B2082CF3DB721ED206110E04
:100DE0006A1E012303EB4202D0B2FFF7CAFF0024C0
:100DF0000BE0A7F12001074A02EB011204F1080100
:100E0000505C00F082F8601CC4B2082CF1DBBDE835
:100E1000F0810000903000082DE9F04780460E4632
:100E200017461D46002415E0281B411E0A20FFF727
:100E30009EFFB7FBF0F00A21B0FBF1F201FB1200BC
:100E400000F130093019C1B24A464046FFF7AAFF07
:100E5000601CC4B2AC42E7DBBDE8F0872DE9F04787
:100E60008146884615461E46002D06DB2B2241464C
:100E70004846FFF797FF2F4605E02D22414648469A
:100E8000FFF790FF6F42002417E0301B411E0A203D
:100E9000FFF76DFFB7FBF0F00A21B0FBF1F201FBA9
:100EA000120000F1300A08EB0400401CC1B25246A7
:100EB0004846FFF777FF601CC4B2B442E5DBBDE8EB
:100EC000F0872DE9F04107460E461546002407E05D
:100ED0002A5D3019C1B23846FFF764FF601CC4B206
:100EE000285D0028F4D1BDE8F08110B50446FFF775
:100EF000B9FE7820FFF78CFE0020FFF789FE204620
:100F0000FFF786FEFFF7C8FE10BD10B50446FFF7D9
:100F1000A9FE7820FFF77CFE4020FFF779FE2046EF
:100F2000FFF776FEFFF7B8FE10BD00002DE9F04197
:100F300004460D466078217840EA0127E078A178E0
:100F400040EA01263846FFF758FA80460F49FFF776
:100F500016FA686006F4004060B1C6F30E0630462B
:100F6000FFF74BFA80460949FFF709FA80F0004085
:100F7000286007E03046FFF740FA80460349FFF754
:100F8000FEF9286020792872BDE8F0810000204138
:100F900001460020034A506820F440400843506056
:100FA000704700000010024029B1064AD26902438E
:100FB000044BDA6104E0034AD2698243014BDA61EF
:100FC000704700000010024029B1064A92690243AE
:100FD000044B9A6104E0034A92698243014B9A618F
:100FE000704700000010024030B5002100220024AC
:100FF00000232D4D6D6805F00C0121B1042905D0A9
:10100000082923D105E0294D056022E0274D056020
:101010001FE0254D6D6805F47012234D6D6805F4D1
:101020008034022505EB92421CB9214D55430560E1
:101030000BE01D4D6D6805F400351DB11C4D554389
:10104000056002E0194D5543056002E0174D05604B
:1010500000BF00BF144D6D6805F0F0010909154D82
:101060006B5C0568DD4045600F4D6D6805F4E0611F
:10107000090A104D6B5C4568DD4085600A4D6D685E
:1010800005F46051C90A0B4D6B5C4568DD40C560D5
:10109000054D6D6805F44041890B074D6B5CC568D3
:1010A000B5FBF3F5056130BD0010024000127A0077
:1010B00000093D001C0000202C00002010B54FF45A
:1010C0007A71002000F030FB10B94FF0FF3010BDF6
:1010D0000120FFF72DFD044614B94FF0FF30F6E76D
:1010E0000A2C03D3282C01D80020F0E73C2C03D392
:1010F0005A2C01D80120EAE74FF0FF30E7E72DE94D
:10110000F041044600250027002002E00021215480
:10111000401C0528FADB4FF0000817E0FFF7CEFF70
:101120000646002E02DA0120BDE8F081605D40062F
:10113000000E6055605D30436055781CC7B2082FC3
:1011400002D10027681CC5B208F10108B8F1280FC8
:10115000E4DB0020E8E72DE9F0470446208920B9C8
:10116000002020616061BDE8F0870027002608E0CC
:10117000206850F826103846FFF777F80746701CAD
:1011800086B22089B042F3DC2089FFF736F90646A3
:1011900031463846FFF7F3F820610025002611E0BC
:1011A000226852F826002169FFF7B1F880464146CF
:1011B0004046FFF7B2F881462946FFF756F8054644
:1011C000701C86B22089B042EADC2089FFF715F94D
:1011D000804641462846FFF7D2F8064601F01CF942
:1011E000606100BFBFE7000008B50120ADF8000056
:1011F00010208DF8030003208DF8020069460E4888
:10120000FFF74FFB01210C48FFF727FC122000F0ED
:10121000F6FA01210848FFF722FC1E2000F00BFB24
:101220000120ADF8000048208DF80300694602480F
:10123000FFF737FB08BD00000008014000B585B08E
:1012400001210420FFF7C0FE002004904FF400703D
:10125000ADF8100018208DF8130003208DF812004F
:1012600004A91848FFF71DFB4FF48060ADF810008B
:1012700004208DF8130004A91248FFF712FB012186
:101280008803FFF7A1FE00200090019002900390D8
:101290004FF4E13000900020ADF80C000C20ADF8C8
:1012A0000A000020ADF80800ADF80600ADF8040013
:1012B0006946054800F0B6F90121034800F098F9A5
:1012C00005B000BD000801400038014010B500F035
:1012D00001F810BD0CB50020019000903348006863
:1012E00040F480303149086000BF3048006800F4A5
:1012F000003000900198401C0190009818B90198A6
:10130000B0F5A06FF1D12948006800F4003010B1A9
:101310000120009001E0002000900098012843D1B6
:101320002348006840F01000214908600846006822
:1013300020F0030008600846006840F002000860E2
:101340001A4840681949486008464068486008469D
:10135000406840F4806048600846406820F47C1093
:1013600048600846406840F4E81048600846006855
:1013700040F08070086000BF0C48006800F000700A
:101380000028F9D00948406820F003000749486068
:101390000846406840F00200486000BF03484068CB
:1013A00000F00C000828F9D10CBD0000001002402C
:1013B0000020024010B500BFBF2080F31188BFF3AA
:1013C0004F8FBFF36F8F00BF01F048FC18B14FF093
:1013D00080500449086000BF002080F3118800BFDE
:1013E00010BD000004ED00E010B51348006840F0A7
:1013F00001001149086008464068104908400E493C
:101400004860084600680E4908400B4908600846D5
:10141000006820F4802008600846406820F4FE0040
:1014200048604FF41F008860FFF750FF4FF00060E6
:101430000449086010BD0000001002400000FFF8E1
:10144000FFFFF6FE08ED00E00EB501210846FFF7AC
:10145000ABFD4720ADF800000020ADF802004FF6CC
:10146000FF70ADF804000020ADF8060069464FF0AB
:10147000804000F015F80121880700F001F80EBD4A
:1014800021B1028842F00102028004E002884FF696
:10149000FE731A40028070470146888C7047000036
:1014A000002202881D4B98420ED01D4B98420BD053
:1014B000B0F1804F08D01B4B984205D01A4B984290
:1014C00002D01A4B984204D14FF68F731A404B88C2
:1014D0001A43174B984207D0164B984204D04FF648
:1014E000FF431A40CB881A4302808B8883850B8880
:1014F00003850A4B98420BD0094B984208D00E4BFB
:10150000984205D00D4B984202D00D4B984201D124
:101510000B7A03860123838270470000002C014070
:10152000003401400004004000080040000C00406E
:101530000010004000140040004001400044014001
:101540000048014010B586B0044601210420FFF791
:101550003BFD01214804FFF727FD0420ADF81400EE
:1015600003208DF8160018208DF8170005A91248E1
:10157000FFF797F90820ADF8140004208DF8170044
:1015800005A90D48FFF78DF901940020ADF808007A
:10159000ADF80A00ADF80C00ADF810000C20ADF865
:1015A0000E0001A9054800F03DF80121034800F0B4
:1015B0001FF806B010BD00000008014000440040C4
:1015C00010B5044600BF8021084800F01DF800282F
:1015D000F9D02146054800F091F800BF40210348AA
:1015E00000F012F80028F9D010BD000000440040BF
:1015F00021B1828942F40052828104E082894DF651
:10160000FF731A408281704702460020B1F5007FC7
:1016100000D100BF13880B400BB1012000E0002077
:10162000704700002DE9F04786B005460E460024BD
:10163000A24600BFA1460027B08900B100BF2F46D7
:101640002C8A4CF6FF700440F08804432C82AC894D
:101650004EF6F3100440B08831890843718908437D
:101660000443AC81AC8A4FF6FF400440B089044388
:10167000AC8201A8FFF7B8FC1F48874202D1DDF811
:1016800010A001E0DDF80CA0A88900F4004040B1F2
:101690000AEBCA0000EB0A1031684900B0FBF1F810
:1016A00007E00AEBCA0000EB0A1031688900B0FBC2
:1016B000F1F86420B8FBF0F004012009642101FB7B
:1016C0001089A88900F4004040B1322000EBC90025
:1016D000B0FBF1F000F00700044308E0322000EB1B
:1016E00009106421B0FBF1F000F00F0004432C81DD
:1016F00006B0BDE8F087000000380140C1F30802E1
:101700008280704700BFFEE7014608784B78184496
:101710008B781844CB781844C2B20879904201D132
:10172000012070470020FCE770B504460D464FF0DD
:101730008040FFF7B1FE064608E04FF08040FFF71B
:10174000ABFE801BA84201D3002070BD01210348DD
:10175000FFF77AF9A042F0D10120F6E70008014036
:1017600010B54FF47A710020FFF7DEFF08B90320AF
:1017700010BD0020FFF7DCF90446282C01D3782C9B
:1017800001D90120F4E70120FFF7D2F90446282C03
:1017900001D3782C01D90120EAE70020E8E7000016
:1017A000014A024900F01AB82D1A000890000020E2
:1017B00002E008C8121F08C1002AFAD1704770471A
:1017C000002001E001C1121F002AFBD17047000078
:1017D0000149086070470000940000202DE9F041A5
:1017E00016460F460446002503E03946B047641C00
:1017F0006D1C20780028F8D12846BDE8F0812DE93D
:10180000F0410446642C06D24FF47A7104FB01F0D7
:1018100000F011F80DE04FF47A70A4FB006001466F
:101820004FF47A7200233046FEF7CAFC054600F0FA
:1018300007FFBDE8F08170B504464FF08040FFF728
:101840002BFE054600BF4FF08040FFF725FE401BF2
:10185000A042F8D370BD00008CB00C2000F04AFD0F
:101860000B90142106A8FEF7F5FC142101A8FEF741
:10187000F1FC00250026FEF79FFF4CE0FEF7E9FF94
:101880004FF4FA6000F0DCFE0B98FEF7B1FF002881
:1018900041D10B98006806A941F825000B984068D3
:1018A00001A941F82500681C052190FBF1F201FB1C
:1018B0001200C5B2052E01DA701CC6B2052E2AD15F
:1018C00000274FF0000800240FE006A850F824106D
:1018D0003846FEF7CAFC074601A850F824104046D7
:1018E000FEF7C3FC8046601CC4B2052CEDDB0A4940
:1018F0003846FEF744FD0B99086007494046FEF75D
:101900003EFD0B99486000235A1E0BA9034800684E
:1019100000F0C4FF00BFB1E70000A04014000020A9
:101920001CB565E04FF0FF3677084FF6FF7864226C
:1019300001A93048006801F0C3F8012809D10199D4
:101940004868FEF778FD054601990868FEF75AFDDC
:101950000446642269462848006801F0B1F801286D
:1019600001D000200090AE4206D1A74204D1BDF8BC
:101970000000804500D13BE0FFF705F91FA20121DF
:101980000846FFF79EFA21A201210220FFF799FAEB
:1019900020A201210320FFF794FA02232A460721FF
:1019A0001846FFF739FA1DA209210220FFF789FA2C
:1019B0000323224607211846FFF750FA18A20B21ED
:1019C0000320FFF77EFA17A201210420FFF779FA1E
:1019D0000423BDF8002008211846FFF71DFA2E4603
:1019E0002746BDF800804FF4FA6000F029FE00BFE2
:1019F00098E70000140000201800002053656E7363
:101A00006F72204D6F6E69746F72000048756D695A
:101A10003A00000054656D703A00000000000000BC
:101A2000430000004C696768743A000070B50446D2
:101A30000D4600BF80210948FFF7E6FD0028F9D0D8
:101A4000A1B20648FFF75AFE00BF40210348FFF746
:101A5000DBFD0028F9D0204670BD000000380140B1
:101A60001FB5FFF721F80027002001900290039096
:101A7000002500242EE0FEF7FBFF074601A820F812
:101A80001570681C052190FBF1F201FB1200C5B234
:101A9000052C01DA601CC4B2052C17D100260020E9
:101AA00005E001A931F810100E44411CC8B2052808
:101AB000F7DB0520B6FBF0F080B2009000235A1E41
:101AC00069460548006800F0E9FE00BF4FF4FA607F
:101AD00000F0B6FDCFE70000180000200EB5002290
:101AE0000421052000F064FE334908600022022131
:101AF000052000F05DFE3149086001211020FFF74C
:101B000063FA10208DF80B004002ADF808000320A6
:101B10008DF80A0002A92A48FEF7C3FE4FF40051CF
:101B20002748FEF79AFFFFF789FBFFF7C9F8FFF791
:101B30008BFC2448012100238022CDE9001022A142
:101B4000234801F06FF82348032100234FF48072EB
:101B5000CDE9001020A1234801F064F822480121BA
:101B600000234FF4C072CDE9001020A1224801F0FB
:101B700059F80020012103468022CDE900101FA161
:101B8000214801F04FF82148022100238022CDE9AD
:101B900000101FA1214801F045F82148022100232F
:101BA0000A02CDE900101FA1224801F03BF800F025
:101BB00083FD00BFFEE70000140000201800002095
:101BC00000100140000000206D795461736B00002B
:101BD000391C0008100000207644485432325F540B
:101BE00061736B0059180008040000206469737069
:101BF0006C61795461736B0021190008757361720F
:101C0000745461736B000000651C00080C00002018
:101C100073656E736F725461736B0000611A000814
:101C20000800002075736172745F657370333254FD
:101C300061736B004524000811E04FF4005108481F
:101C4000FEF70BFF4FF4FA7000F0FAFC4FF400516E
:101C50000348FEF704FF4FF4FA7000F0F1FCECE7E4
:101C60000010014004A0FFF79BFD03E04FF47A70E1
:101C700000F0E6FCFAE7000068656C6C6F20776F97
:101C8000726C640A000000002DE9F04705460E461C
:101C9000294807682948D0F800802948D0F80090E2
:101CA00028480068001D00F039FC50B9254800683C
:101CB00090F82C100120884023490968814322486C
:101CC0000160681CE0B9DEB100BF204948681D49C9
:101CD000096888601B4982680968CA6019490968EF
:101CE000091D8268516017490968091D8160174AFA
:101CF000144909684A6111460968491C116018E0D5
:101D00007C19104800684460BC4206D20D48016846
:101D1000091D484600F026FC0BE00A480168091D31
:101D2000404600F01FFC0A480068844201D208487F
:101D30000460BDE8F087000044000020340000206B
:101D400038000020300000204800002084020020DD
:101D50006000002010B5044600F01EFC3248006808
:101D6000401C314908603148006840B92F48046080
:101D70000846006801280DD100F0D6F90AE02C4889
:101D8000006838B929480068C06AE16A884201D809
:101D90002648046027480068401C2649086000BFA8
:101DA00094F82C10012088402349096808432249EF
:101DB000086000BFE16A01EB8101204A02EB81016A
:101DC0004868A0608268E260211D8268516081607D
:101DD000E16A01EB8101194A02EB81026261E16A69
:101DE00001EB8101154A52F82110491CE26A02EB0D
:101DF0008202124B43F8221000BF00BF00F0DEFB4E
:101E00000B48006878B100BF08480068C06AE16A02
:101E1000884207D24FF0805009490860BFF34F8FC6
:101E2000BFF36F8F00BF10BD4000002030000020C6
:101E30004C0000205C00002048000020D001002061
:101E400004ED00E010B516E000F0A6FB0C48C068F9
:101E5000C468201D00F062FB0A480068401E094962
:101E6000086009480068401E0749086000F0A6FBAA
:101E7000204600F0B6F8044800680028E4D110BD00
:101E800070020020400000203C00002070B5044695
:101E90000D46206C70B1216CE0680144E160D4E92A
:101EA0000210884201D32168E1602846226CE16873
:101EB000FEF7B7F970BD2DE9F04104460F4615460F
:101EC0004FF00008A66B206C28B37DB93946226C10
:101ED0006068FEF7A6F9216C606808446060D4E988
:101EE0000101884217D32068606014E03946226CF3
:101EF000E068FEF796F9216CE068411AE16021681C
:101F0000E068884203D2216CA068411AE160022D8A
:101F100001D106B1761E701CA0634046BDE8F08179
:101F2000F0B587B001260027002408E012A0005D6C
:101F300003A9085503A8005D00B902E0641C102C39
:101F4000F4DB00BF002510E00D4F0E4800EB8500CC
:101F500000210B468022CDE9001003A9384600F08D
:101F600061FE064606B902E06D1C012DECDB00BFE8
:101F7000304607B0F0BD000049444C450000000069
:101F800061200008640000202DE9FF5F07468846B5
:101F900016469946DDE90EABB00000F0ABF90546F8
:101FA00075B14C2000F0A6F904462CB14C21204616
:101FB000FEF750F9256304E0284600F00FFB00E02F
:101FC000002454B100204B4632464146CDE900ABD7
:101FD000CDE90240384600F06AF8204604B0BDE87A
:101FE000F09F10B50446206B00F0F8FA204600F090
:101FF000F5FA10BD30B54FF48843144800F00704DB
:102000002CB1C01D20F00700104C041B1B1B104CF2
:10201000206000240E4D6C60C218083A22F00702BE
:102020000C4C226000240B4D2D686C60094D2D680E
:102030002C600146541A4C60064C24680C60064D16
:102040004C682C60054D4C682C6030BD9802002017
:10205000740000207C00002084000020800000200C
:1020600000BFFFF7EFFE064800680128F9D94FF0DE
:10207000805004490860BFF34F8FBFF36F8FF0E7C4
:10208000D001002004ED00E02DE9F04106460D46A8
:1020900017469846069C0DB9246000E02760E66369
:1020A00025640121204600F0A9FBBDE8F0812DE95F
:1020B000FF5F80460E469146DDE90E7A109CA9F13D
:1020C0000100216B01EB800B2BF0070B7EB100258B
:1020D00007E0715D04F134004155705D00B902E024
:1020E0006D1C102DF5D300BF002143200155052F95
:1020F00000D30427E762201D00F031FA04F1180034
:1021000000F02DFA2461C7F10500A0616462414628
:102110005846039A00F06EF92060BAF1000F01D022
:10212000CAF80040BDE8FF9F10B5002407E004EBAB
:1021300084010F4A02EB810000F004FA641C052CB4
:10214000F5D30C4800F0FEF90B4800F0FBF90B4802
:1021500000F0F8F90A4800F0F5F90A4800F0F2F941
:1021600004480949086004480849086010BD000097
:10217000D001002034020020480200205C02002030
:10218000700200208402002034000020380000206B
:1021900010B50146164800E0006803688B42FBD387
:1021A0000246436813448B4204D143684C6823447D
:1021B000436001460A464B6813440468A34211D1A8
:1021C0000C4C03682468A34208D04B680468646818
:1021D00023444B6003681B680B6005E0054B1B68DC
:1021E0000B6001E003680B60884200D0016010BD05
:1021F000740000207C00002070B5054600F0CCF98A
:10220000A86B08B9012400E0002400F0D7F92046AB
:1022100070BD70B5054600F0BFF9A86BE96B884248
:1022200001D1012400E0002400F0C8F9204670BD6F
:1022300009480068006808B9012000E0002020B1CA
:102240004FF0FF300549086005E003480068C068AA
:1022500000680249086070473400002060000020D8
:1022600000BFBF2080F31188BFF34F8FBFF36F8F84
:1022700000BF00BFFEE770B5044600F08DF994F989
:10228000455010E0606A08B9012000E0002038B92C
:1022900004F1240000F0B2FD18B100F0F7F900E0FD
:1022A00003E0681E45B2002DECDC00BFFF2084F87F
:1022B000450000F083F900F06FF994F9445010E004
:1022C000206908B9012000E0002048B904F110009D
:1022D00000F094FD08B100F0D9F9681E45B200E0A5
:1022E00001E0002DECDC00BFFF2084F8440000F08A
:1022F00065F970BD2DE9F04704464FF00009DCB1E7
:1023000014F1090F01D9012000E0002098B9083428
:1023100004F0070080B104F00700C0F10808C8F11C
:10232000FF30A04201D2012000E0002008B944445F
:1023300002E0002400E0002400F0E4F928480068EE
:1023400008B9FFF757FE012000EBE470002841D0E8
:10235000002C3FD02348006884423BD8224E3046B0
:10236000056801E02E462D686868A04202D2286800
:102370000028F7D11A48006885422BD0306800F158
:102380000809286830606868001B102807D92F19D1
:102390006868001B78606C6030683860376011498D
:1023A00068680968081A0F490860084600680F49FC
:1023B0000968884203D20B4800680C4908606868C5
:1023C00040F0004068600020286009480068401C18
:1023D0000749086000F09EFD4846BDE8F087000010
:1023E0007C00002080000020740000208400002079
:1023F00088000020001F4FF080730360001F21F051
:1024000001030360001F034B03601438026020388F
:10241000704700006122000870B50546FEF780F89D
:10242000044620F00040C0F1FF40C00F08D025F066
:102430000040C0F1FF40C00F04BF0120FFF7C8F902
:10244000204670BD86B04FF4E130FFF77BF82A4B91
:1024500014222A492A48FEF76AF9274B14222949EF
:102460002948FEF764F9244B142228492848FEF72E
:102470005EF93FE0642205A92648006800F09AFA58
:10248000012833D1002204A92348006800F092FA01
:1024900001282BD1059801681948FEF752F9044626
:1024A000059841681848FEF74CF90546BDF810003C
:1024B000FDF7A3FF074639461548FEF742F90646E1
:1024C0000CB905B90EB1012000E00020ADF80E00F6
:1024D000059800680190059840680290BDF81000CA
:1024E000ADF80C0001A8FEF7BDF900BF4FF4FA608B
:1024F00000F0A6F8BEE70000000040409800002071
:1025000088010020E8000020A00100203801002000
:10251000B8010020140000201800002001460A69BC
:10252000D1E901309860D1E90103586050688842D0
:1025300001D188685060002008611068401E10605A
:102540001068704700F1080141604FF0FF31816071
:1025500000F10801C16001610021016070470021A4
:102560000161704710B502460B685C1C0CB910691C
:1025700007E002F1080000E04068446824689C42DB
:10258000FAD944684C604C68A160886041600A6177
:102590001468641C146010BD00BFBF2080F3118854
:1025A000BFF34F8FBFF36F8F00BF03480068401C1D
:1025B000014908607047000070000020064800686C
:1025C000401E054908600846006820B9002080F3D5
:1025D000118800BF00BF70477000002070B506462C
:1025E0003546E6B1083D2C466068C00FB8B120689A
:1025F000A8B9606820F00040606000F083F80849E6
:10260000606809680844064908602046FFF7C0FD75
:1026100004480068401C0349086000F07BFC70BD62
:10262000800000208C00002000204FF0E021086195
:102630008861024848610720086170473F1901001E
:1026400070B50446002544B100F05CF80021204636
:10265000FFF71AFB00F05EFC05463DB94FF08050D5
:1026600003490860BFF34F8FBFF36F8F70BD000049
:1026700004ED00E00349096801600349096841600D
:10268000704700005800002044000020012001494C
:10269000086070475400002070B505460C46054898
:1026A000016818312846FFF75DFF01212046FFF73A
:1026B000EBFA70BD3000002010B5FFF731FC044686
:1026C000012C14D100BFBF2080F31188BFF34F8FBE
:1026D000BFF36F8F00BF4FF0FF3006490860012045
:1026E0000549086000200549086000F047F80448E3
:1026F000006810BD600000204C0000204400002055
:102700006800002002480068401C014908607047CA
:102710006C0000201448006818B1012013490860BB
:1027200021E000201149086000BF11480068B0FA9C
:1027300080F0C0F11F0100BF01EB81020D4B03EBE4
:10274000820042685268426000F108024368934286
:1027500001D1C26842604268D268074B1A6000BF6C
:1027600000BF1846006870476C000020540000202D
:1027700048000020D00100203000002010B50A4899
:10278000006840F47F00084908600846006840F08F
:102790007F400860FFF748FF002004490860FDF70C
:1027A000C3FC002010BD000020ED00E07000002000
:1027B0002DE9F84304460E4617460025DCB1681E95
:1027C000B0FBF4F0B04216D304FB06F010F1490F51
:1027D00011D804FB06F909F14800FFF78BFD054607
:1027E0004DB1A84608F148083B46424631462046CE
:1027F0000095FFF749FC2846BDE8F8832DE9F04134
:1028000005460E4601272C46002C41D0E06B0028DF
:102810003ED0B91EE06BB1FBF0F0216C884237D39B
:10282000FFF7BAFED4E90F12206801FB0200A06096
:102830000020A06320686060E06B401E226C21686D
:1028400000FB0211E160FF2084F8440084F8450099
:102850009EB9206908B9012000E00020A8B904F160
:10286000100000F0CBFA80B14FF080500A490860A8
:10287000BFF34F8FBFF36F8F07E004F11000FFF736
:1028800061FE04F12400FFF75DFEFFF797FE00E014
:1028900000273846BDE8F08104ED00E02DE9FF4354
:1028A00083B0074688461D464FF000093C4600BFEE
:1028B000FFF772FEA06BE16B884201D3022D28D195
:1028C0002A4641462046FFF7F6FA0646606A08B9EE
:1028D000012000E0002068B904F1240000F08EFA25
:1028E00088B14FF0805032490860BFF34F8FBFF37B
:1028F0006F8F08E03EB14FF080502D490860BFF364
:102900004F8FBFF36F8FFFF759FE012007B0BDE86F
:10291000F083059818B9FFF751FE0020F6E7B9F1EA
:10292000000F04D101A8FFF7A5FE4FF00109FFF742
:1029300045FEFFF7E7FEFFF72FFE94F94400401C29
:1029400010B9002084F8440094F94500401C10B9E7
:10295000002084F84500FFF731FE05A901A800F02A
:1029600031F9F0B92046FFF754FCA0B104F1100092
:102970000599FFF791FE2046FFF77DFC00F0CAFAAB
:10298000002895D14FF0805009490860BFF34F8F60
:10299000BFF36F8F8CE72046FFF76DFC00F0BAFAAB
:1029A00086E72046FFF767FC00F0B4FA0020ADE7A9
:1029B00004ED00E02DE9F74382B005460F464FF0E5
:1029C00000082C4600BFFFF7E7FDD4F83890B9F1B6
:1029D000000F1ED0E66839462046FFF757FAE6603A
:1029E000606A08B9012000E0002060B904F1240009
:1029F00000F004FA38B14FF0805030490860BFF35E
:102A00004F8FBFF36F8FFFF7D9FD012005B0BDE8F1
:102A1000F083049818B9FFF7D1FD0020F6E7B8F16C
:102A2000000F04D16846FFF725FE4FF00108FFF7BD
:102A3000C5FDFFF767FEFFF7AFFD94F94400401CAA
:102A400010B9002084F8440094F94500401C10B9E6
:102A5000002084F84500FFF7B1FD04A9684600F0A6
:102A6000B1F8F0B92046FFF7C7FBA0B104F124008C
:102A70000499FFF711FE2046FFF7FDFB00F04AFA2C
:102A80000028A0D14FF080500C490860BFF34F8F51
:102A9000BFF36F8F97E72046FFF7EDFB00F03AFAA0
:102AA00091E72046FFF7E7FB00F034FA2046FFF7F6
:102AB000A3FB002887D00020A8E7000004ED00E079
:102AC0002DE9F74183B005460F464FF000082C462C
:102AD00000BFFFF761FDA66BF6B139462046FFF750
:102AE000D5F9701EA063206908B9012000E000201C
:102AF00060B904F1100000F081F938B14FF0805056
:102B00002F490860BFF34F8FBFF36F8FFFF756FD5C
:102B1000012006B0BDE8F081059818B9FFF74EFD19
:102B20000020F6E7B8F1000F04D101A8FFF7A2FDDD
:102B30004FF00108FFF742FDFFF7E4FDFFF72CFD22
:102B400094F94400401C10B9002084F8440094F922
:102B50004500401C10B9002084F84500FFF72EFD09
:102B600005A901A800F02EF8F0B92046FFF744FBB4
:102B7000A0B104F124000599FFF78EFD2046FFF770
:102B80007AFB00F0C7F90028A3D14FF080500C4920
:102B90000860BFF34F8FBFF36F8F9AE72046FFF7B0
:102BA0006AFB00F0B7F994E72046FFF764FB00F0FA
:102BB000B1F92046FFF720FB00288AD00020A8E7C3
:102BC00004ED00E070B506460C46FFF7E5FC13483F
:102BD00002687068131A2068401C08B9002519E0C3
:102BE0000F4930680968884206D07068904203D85F
:102BF0000125002020600DE02068984207D9206858
:102C0000C01A20603046FFF735FD002502E00020A5
:102C100020600125FFF7D2FC284670BD440000204B
:102C2000580000202DE9FC5F06460F469046994665
:102C3000DDE90CAB4B46424639463046CDE900ABA8
:102C4000FFF7A2F9054625B12846FFF783F80124CE
:102C500001E04FF0FF342046BDE8FC9F2DE9F04134
:102C600000275B48006800287DD15A480068451C51
:102C70005848056095B900BF5748D0F800805748BC
:102C80000068554908605548C0F8008054480068FD
:102C9000401C53490860FFF7CBFA00BF5148006859
:102CA00085427DD300BF4C480068006808B9012008
:102CB00000E0002020B14FF0FF304A4908606EE08C
:102CC00045480068C068C4686668B54202D2454895
:102CD000066064E000BF6069D4E902128A60D4E94A
:102CE00002214A60211D42688A4201D1E1684160A7
:102CF000002262610168491E016000BFA06AA0B1A4
:102D000000BFA06AD4E907128A60D4E907214A60AB
:102D100004F1180142688A4201D1216A416000220F
:102D2000A2620168491E016000BF00BF94F82C1028
:102D3000012088402C49096808432B49086000BFDE
:102D4000E16A01EB8101294A02EB81014868A06038
:102D50008268E260211D826851608160E16A01EB56
:102D60008101224A00E02BE002EB81026261E16A0C
:102D700001EB81011D4A52F82110491CE26A02EB65
:102D800082021A4B43F8221000BF00BF1849E06AC4
:102D90000968C96A884286D9012784E700E000BF34
:102DA00013480068C06A00EB8000104951F8200009
:102DB000012800D901270F48006800B1012704E06D
:102DC0000D480068401C0C4908603846BDE8F08199
:102DD0006C00002044000020340000203800002057
:102DE000580000206000002048000020D001002092
:102DF00030000020540000205000002070B5034631
:102E0000D868C16800BF886AD1E90745A560D1E9E3
:102E10000754656001F118044568A54201D10C6AA8
:102E2000446000258D620468641E046000BF33485E
:102E30000068002842D100BF4869D1E90245A56079
:102E4000D1E9025465600C1D4568A54201D1CC68EA
:102E5000446000254D610468641E046000BF00BF2B
:102E600091F82C400120A040254C24682043244C9C
:102E7000206000BFCC6A04EB8404224D05EB84047F
:102E8000606888608568CD600C1D85686C608460B2
:102E9000CC6A04EB84041B4D05EB84054D61CC6AC0
:102EA00004EB8404174D55F82440641CCD6A05EBEF
:102EB0008505144E46F8254000BF11E000BF124CB6
:102EC0006068C86185680D6201F1180485686C60EE
:102ED00084600D4D8D622C462468641C2C6000BFFC
:102EE0000A4CC86A2468E46AA04204D9012201207D
:102EF000074C206000E00022104670BD6C000020EE
:102F000048000020D00100205C020020300000209A
:102F1000540000202DE9F04100240027FFF73CFB7E
:102F2000002552480068401E504908600846006865
:102F300000286ED14E48006800286AD064E04D48F1
:102F4000C068C46800BFA06AD4E907128A60D4E9E7
:102F500007214A6004F1180142688A4201D1216ABE
:102F600041600022A2620168491E016000BF00BFEB
:102F70006069D4E902128A60D4E902214A60211D05
:102F800042688A4201D1E1684160002262610168C1
:102F9000491E016000BF00BF94F82C10012088403A
:102FA0003549096808433449086000BFE16A01EB0C
:102FB0008101324A02EB81014868A0608268E260C8
:102FC000211D826851608160E16A01EB81012B4A19
:102FD00002EB81026261E16A01EB8101274A52F84A
:102FE0002110491CE26A02EB8202244B43F82210B2
:102FF00000BF00BF2249E06A0968C96A884203D954
:103000000120204941F825001A48006810B9012024
:1030100001E026E00020002891D00CB1FFF708F96C
:10302000194806686EB100BFFFF718FE18B10120FD
:10303000144941F82500761E002EF5D100201249D2
:103040000860104850F8250058B1012700BF0C480F
:10305000006838070D490860BFF34F8FBFF36F8FCB
:1030600000BFFFF7ABFA3846BDE8F0816C000020E6
:10307000400000205C02002048000020D001002019
:1030800030000020540000205000002004ED00E03B
:103090000000000000000000000000000000000030
:1030A000000000F8000000000000003330000000C5
:1030B00000100C06100C06000000000000000000CC
:1030C00040C07840C0784000043F04043F0404003E
:1030D000007088FC08300000001820FF211E00004E
:1030E000F008F000E018000000211C031E211E0063
:1030F00000F00888700000001E21232419272110E9
:1031000010160E000000000000000000000000008B
:10311000000000E018040200000000071820400032
:1031200000020418E0000000004020180700000022
:10313000404080F0804040000202010F0102020086
:10314000000000F0000000000101011F010101006A
:10315000000000000000000080B0700000000000CF
:103160000000000000000000000101010101010158
:1031700000000000000000000030300000000000EF
:1031800000000000806018040060180601000000C4
:1031900000E010080810E000000F102020100F00C1
:1031A000001010F8000000000020203F2020000048
:1031B00000700808088870000030282422213000A0
:1031C00000300888884830000018202020110E00A8
:1031D0000000C02010F8000000070424243F240051
:1031E00000F80888880808000019212020110E0026
:1031F00000E0108888180000000F112020110E0038
:1032000000380808C83808000000003F000000002F
:103210000070880808887000001C222121221C00F0
:1032200000E010080810E0000000312222110F0019
:10323000000000C0C00000000000003030000000AE
:10324000000000800000000000008060000000001E
:103250000000804020100800000102040810200037
:103260004040404040404000040404040404040082
:103270000008102040800000002010080402010017
:10328000007048080808F000000000303601000017
:10329000C030C828E810E0000718272423140B00CA
:1032A0000000C038E0000000203C23020227382044
:1032B00008F8888888700000203F202020110E0028
:1032C000C03008080808380007182020201008001F
:1032D00008F808080810E000203F202020100F0008
:1032E00008F88888E8081000203F202023201800D4
:1032F00008F88888E8081000203F2000030000003C
:10330000C03008080838000007182020221E0200DC
:1033100008F808000008F808203F210101213F209B
:10332000000808F8080800000020203F20200000C6
:1033300000000808F8080800C08080807F000000B6
:1033400008F888C028180800203F200126382000EF
:1033500008F8080000000000203F20202020300056
:1033600008F8F800F8F80800203F003F003F200070
:1033700008F830C00008F808203F200007183F0078
:10338000E01008080810E0000F10202020100F00A7
:1033900008F808080808F000203F2101010100009A
:1033A000E01008080810E0000F18242438504F00DF
:1033B00008F8888888887000203F2000030C30209F
:1033C00000708808080838000038202121221C00DD
:1033D000180808F8080818000000203F2000000026
:1033E00008F808000008F808001F202020201F000F
:1033F0000878880000C83808000007380E0100006F
:10340000F80800F80008F800033C0700073C030038
:10341000081868808068180820302C03032C30209E
:103420000838C800C83808000000203F200000000D
:1034300010080808C8380800203826212020180065
:10344000000000FE020202000000007F4040400039
:10345000000C30C000000000000000010638C00071
:1034600000020202FE000000004040407F00000019
:10347000000004020202040000000000000000003E
:10348000000000000000000080808080808080803C
:103490000002020400000000000000000000000024
:1034A00000008080808000000019242222223F201A
:1034B00008F8008080000000003F112020110E005D
:1034C0000000008080800000000E112020201100EC
:1034D000000000808088F800000E112020103F209E
:1034E0000000808080800000001F22222222130022
:1034F000008080F0888888180020203F202000006D
:103500000000808080808000006B94949493600021
:1035100008F8008080800000203F210000203F202C
:1035200000809898000000000020203F202000002C
:10353000000000809898000000C08080807F00001C
:1035400008F8000080808000203F24022D302000F9
:10355000000808F8000000000020203F20200000A4
:103560008080808080808000203F20003F20003FBE
:103570008080008080800000203F210000203F20CC
:103580000000808080800000001F202020201F007D
:10359000808000808000000080FFA12020110E00AC
:1035A0000000008080808000000E112020A0FF809D
:1035B000808080008080800020203F21200001004A
:1035C000000080808080800000332424242419009F
:1035D000008080E0808000000000001F20200000AC
:1035E0008080000000808000001F202020103F20ED
:1035F000808080000080808000010E30080601007D
:1036000080800080008080800F300C030C300F0021
:1036100000808000808080000020312E0E3120004C
:10362000808080000080808080818E70180601007C
:1036300000808080808080000021302C222130009A
:1036400000000000807C020200000000003F4040BB
:1036500000000000FF00000000000000FF0000006C
:103660000002027C800000000040403F000000009B
:103670000006010102020404000000000000000036
:10368000A03600080000002098000000B0170008D5
:103690003837000898000020004A0000C0170008D2
:1036A000000000000000000000000000000000001A
:1036B000000000000000000000000000000000000A
:1036C00001020304010203040607080902040608B4
:1036D00000000000000000000000000000000000EA
:1036E00000000000000000000000000000000000DA
:1036F00000000000000000000000000000000000CA
:1037000000000000000000000400000000000000B5
:10371000AAAAAAAA00000000000000000000000001
:103720000000000000000000000000000000000099
:08373000000000000000000091
:04000005080000ED02
:00000001FF
